{
  "contractName": "InvasionMars",
  "abi": [
    {
      "inputs": [],
      "stateMutability": "nonpayable",
      "type": "constructor"
    },
    {
      "anonymous": false,
      "inputs": [
        {
          "indexed": true,
          "internalType": "address",
          "name": "owner",
          "type": "address"
        },
        {
          "indexed": true,
          "internalType": "address",
          "name": "spender",
          "type": "address"
        },
        {
          "indexed": false,
          "internalType": "uint256",
          "name": "value",
          "type": "uint256"
        }
      ],
      "name": "Approval",
      "type": "event"
    },
    {
      "anonymous": false,
      "inputs": [
        {
          "indexed": false,
          "internalType": "uint256",
          "name": "minTokensBeforeSwap",
          "type": "uint256"
        }
      ],
      "name": "MinTokensBeforeSwapUpdated",
      "type": "event"
    },
    {
      "anonymous": false,
      "inputs": [
        {
          "indexed": true,
          "internalType": "address",
          "name": "previousOwner",
          "type": "address"
        },
        {
          "indexed": true,
          "internalType": "address",
          "name": "newOwner",
          "type": "address"
        }
      ],
      "name": "OwnershipTransferred",
      "type": "event"
    },
    {
      "anonymous": false,
      "inputs": [
        {
          "indexed": false,
          "internalType": "uint256",
          "name": "tokensSwapped",
          "type": "uint256"
        },
        {
          "indexed": false,
          "internalType": "uint256",
          "name": "ethReceived",
          "type": "uint256"
        },
        {
          "indexed": false,
          "internalType": "uint256",
          "name": "tokensIntoLiquidity",
          "type": "uint256"
        }
      ],
      "name": "SwapAndLiquify",
      "type": "event"
    },
    {
      "anonymous": false,
      "inputs": [
        {
          "indexed": false,
          "internalType": "bool",
          "name": "enabled",
          "type": "bool"
        }
      ],
      "name": "SwapAndLiquifyEnabledUpdated",
      "type": "event"
    },
    {
      "anonymous": false,
      "inputs": [
        {
          "indexed": true,
          "internalType": "address",
          "name": "from",
          "type": "address"
        },
        {
          "indexed": true,
          "internalType": "address",
          "name": "to",
          "type": "address"
        },
        {
          "indexed": false,
          "internalType": "uint256",
          "name": "value",
          "type": "uint256"
        }
      ],
      "name": "Transfer",
      "type": "event"
    },
    {
      "inputs": [],
      "name": "_liquidityFee",
      "outputs": [
        {
          "internalType": "uint256",
          "name": "",
          "type": "uint256"
        }
      ],
      "stateMutability": "view",
      "type": "function"
    },
    {
      "inputs": [],
      "name": "_maxTxAmount",
      "outputs": [
        {
          "internalType": "uint256",
          "name": "",
          "type": "uint256"
        }
      ],
      "stateMutability": "view",
      "type": "function"
    },
    {
      "inputs": [],
      "name": "_taxFee",
      "outputs": [
        {
          "internalType": "uint256",
          "name": "",
          "type": "uint256"
        }
      ],
      "stateMutability": "view",
      "type": "function"
    },
    {
      "inputs": [],
      "name": "canTrade",
      "outputs": [
        {
          "internalType": "bool",
          "name": "",
          "type": "bool"
        }
      ],
      "stateMutability": "view",
      "type": "function"
    },
    {
      "inputs": [],
      "name": "initialTokenLiquidity",
      "outputs": [
        {
          "internalType": "uint256",
          "name": "",
          "type": "uint256"
        }
      ],
      "stateMutability": "view",
      "type": "function"
    },
    {
      "inputs": [],
      "name": "marketingFeePercent",
      "outputs": [
        {
          "internalType": "uint256",
          "name": "",
          "type": "uint256"
        }
      ],
      "stateMutability": "view",
      "type": "function"
    },
    {
      "inputs": [],
      "name": "marketingWallet",
      "outputs": [
        {
          "internalType": "address",
          "name": "",
          "type": "address"
        }
      ],
      "stateMutability": "view",
      "type": "function"
    },
    {
      "inputs": [],
      "name": "owner",
      "outputs": [
        {
          "internalType": "address",
          "name": "",
          "type": "address"
        }
      ],
      "stateMutability": "view",
      "type": "function"
    },
    {
      "inputs": [],
      "name": "renounceOwnership",
      "outputs": [],
      "stateMutability": "nonpayable",
      "type": "function"
    },
    {
      "inputs": [],
      "name": "swapAndLiquifyEnabled",
      "outputs": [
        {
          "internalType": "bool",
          "name": "",
          "type": "bool"
        }
      ],
      "stateMutability": "view",
      "type": "function"
    },
    {
      "inputs": [],
      "name": "swapThresholdPercent",
      "outputs": [
        {
          "internalType": "uint256",
          "name": "",
          "type": "uint256"
        }
      ],
      "stateMutability": "view",
      "type": "function"
    },
    {
      "inputs": [
        {
          "internalType": "address",
          "name": "newOwner",
          "type": "address"
        }
      ],
      "name": "transferOwnership",
      "outputs": [],
      "stateMutability": "nonpayable",
      "type": "function"
    },
    {
      "inputs": [],
      "name": "uniswapV2Pair",
      "outputs": [
        {
          "internalType": "address",
          "name": "",
          "type": "address"
        }
      ],
      "stateMutability": "view",
      "type": "function"
    },
    {
      "inputs": [],
      "name": "uniswapV2Router",
      "outputs": [
        {
          "internalType": "contract IUniswapV2Router02",
          "name": "",
          "type": "address"
        }
      ],
      "stateMutability": "view",
      "type": "function"
    },
    {
      "stateMutability": "payable",
      "type": "receive"
    },
    {
      "inputs": [],
      "name": "initializeUniswap",
      "outputs": [],
      "stateMutability": "nonpayable",
      "type": "function"
    },
    {
      "inputs": [],
      "name": "name",
      "outputs": [
        {
          "internalType": "string",
          "name": "",
          "type": "string"
        }
      ],
      "stateMutability": "pure",
      "type": "function"
    },
    {
      "inputs": [],
      "name": "symbol",
      "outputs": [
        {
          "internalType": "string",
          "name": "",
          "type": "string"
        }
      ],
      "stateMutability": "pure",
      "type": "function"
    },
    {
      "inputs": [],
      "name": "decimals",
      "outputs": [
        {
          "internalType": "uint8",
          "name": "",
          "type": "uint8"
        }
      ],
      "stateMutability": "pure",
      "type": "function"
    },
    {
      "inputs": [],
      "name": "totalSupply",
      "outputs": [
        {
          "internalType": "uint256",
          "name": "",
          "type": "uint256"
        }
      ],
      "stateMutability": "pure",
      "type": "function"
    },
    {
      "inputs": [
        {
          "internalType": "address",
          "name": "account",
          "type": "address"
        }
      ],
      "name": "balanceOf",
      "outputs": [
        {
          "internalType": "uint256",
          "name": "",
          "type": "uint256"
        }
      ],
      "stateMutability": "view",
      "type": "function"
    },
    {
      "inputs": [
        {
          "internalType": "address",
          "name": "recipient",
          "type": "address"
        },
        {
          "internalType": "uint256",
          "name": "amount",
          "type": "uint256"
        }
      ],
      "name": "transfer",
      "outputs": [
        {
          "internalType": "bool",
          "name": "",
          "type": "bool"
        }
      ],
      "stateMutability": "nonpayable",
      "type": "function"
    },
    {
      "inputs": [
        {
          "internalType": "address",
          "name": "owner",
          "type": "address"
        },
        {
          "internalType": "address",
          "name": "spender",
          "type": "address"
        }
      ],
      "name": "allowance",
      "outputs": [
        {
          "internalType": "uint256",
          "name": "",
          "type": "uint256"
        }
      ],
      "stateMutability": "view",
      "type": "function"
    },
    {
      "inputs": [
        {
          "internalType": "address",
          "name": "spender",
          "type": "address"
        },
        {
          "internalType": "uint256",
          "name": "amount",
          "type": "uint256"
        }
      ],
      "name": "approve",
      "outputs": [
        {
          "internalType": "bool",
          "name": "",
          "type": "bool"
        }
      ],
      "stateMutability": "nonpayable",
      "type": "function"
    },
    {
      "inputs": [
        {
          "internalType": "address",
          "name": "sender",
          "type": "address"
        },
        {
          "internalType": "address",
          "name": "recipient",
          "type": "address"
        },
        {
          "internalType": "uint256",
          "name": "amount",
          "type": "uint256"
        }
      ],
      "name": "transferFrom",
      "outputs": [
        {
          "internalType": "bool",
          "name": "",
          "type": "bool"
        }
      ],
      "stateMutability": "nonpayable",
      "type": "function"
    },
    {
      "inputs": [
        {
          "internalType": "address",
          "name": "spender",
          "type": "address"
        },
        {
          "internalType": "uint256",
          "name": "addedValue",
          "type": "uint256"
        }
      ],
      "name": "increaseAllowance",
      "outputs": [
        {
          "internalType": "bool",
          "name": "",
          "type": "bool"
        }
      ],
      "stateMutability": "nonpayable",
      "type": "function"
    },
    {
      "inputs": [
        {
          "internalType": "address",
          "name": "spender",
          "type": "address"
        },
        {
          "internalType": "uint256",
          "name": "subtractedValue",
          "type": "uint256"
        }
      ],
      "name": "decreaseAllowance",
      "outputs": [
        {
          "internalType": "bool",
          "name": "",
          "type": "bool"
        }
      ],
      "stateMutability": "nonpayable",
      "type": "function"
    },
    {
      "inputs": [
        {
          "internalType": "address",
          "name": "account",
          "type": "address"
        }
      ],
      "name": "isExcludedFromReward",
      "outputs": [
        {
          "internalType": "bool",
          "name": "",
          "type": "bool"
        }
      ],
      "stateMutability": "view",
      "type": "function"
    },
    {
      "inputs": [],
      "name": "totalFees",
      "outputs": [
        {
          "internalType": "uint256",
          "name": "",
          "type": "uint256"
        }
      ],
      "stateMutability": "view",
      "type": "function"
    },
    {
      "inputs": [
        {
          "internalType": "address",
          "name": "recipient",
          "type": "address"
        },
        {
          "internalType": "uint256",
          "name": "amount",
          "type": "uint256"
        }
      ],
      "name": "airdrop",
      "outputs": [],
      "stateMutability": "nonpayable",
      "type": "function"
    },
    {
      "inputs": [
        {
          "internalType": "address[]",
          "name": "newholders",
          "type": "address[]"
        },
        {
          "internalType": "uint256[]",
          "name": "amounts",
          "type": "uint256[]"
        }
      ],
      "name": "airdropArray",
      "outputs": [],
      "stateMutability": "nonpayable",
      "type": "function"
    },
    {
      "inputs": [
        {
          "internalType": "uint256",
          "name": "tAmount",
          "type": "uint256"
        }
      ],
      "name": "deliver",
      "outputs": [],
      "stateMutability": "nonpayable",
      "type": "function"
    },
    {
      "inputs": [
        {
          "internalType": "uint256",
          "name": "tAmount",
          "type": "uint256"
        },
        {
          "internalType": "bool",
          "name": "deductTransferFee",
          "type": "bool"
        }
      ],
      "name": "reflectionFromToken",
      "outputs": [
        {
          "internalType": "uint256",
          "name": "",
          "type": "uint256"
        }
      ],
      "stateMutability": "view",
      "type": "function"
    },
    {
      "inputs": [
        {
          "internalType": "uint256",
          "name": "rAmount",
          "type": "uint256"
        }
      ],
      "name": "tokenFromReflection",
      "outputs": [
        {
          "internalType": "uint256",
          "name": "",
          "type": "uint256"
        }
      ],
      "stateMutability": "view",
      "type": "function"
    },
    {
      "inputs": [
        {
          "internalType": "address",
          "name": "account",
          "type": "address"
        }
      ],
      "name": "excludeFromReward",
      "outputs": [],
      "stateMutability": "nonpayable",
      "type": "function"
    },
    {
      "inputs": [
        {
          "internalType": "address",
          "name": "account",
          "type": "address"
        }
      ],
      "name": "includeInReward",
      "outputs": [],
      "stateMutability": "nonpayable",
      "type": "function"
    },
    {
      "inputs": [
        {
          "internalType": "address",
          "name": "account",
          "type": "address"
        }
      ],
      "name": "excludeFromFee",
      "outputs": [],
      "stateMutability": "nonpayable",
      "type": "function"
    },
    {
      "inputs": [
        {
          "internalType": "address",
          "name": "account",
          "type": "address"
        }
      ],
      "name": "includeInFee",
      "outputs": [],
      "stateMutability": "nonpayable",
      "type": "function"
    },
    {
      "inputs": [
        {
          "internalType": "uint256",
          "name": "fee",
          "type": "uint256"
        }
      ],
      "name": "setMarketingFeePercent",
      "outputs": [],
      "stateMutability": "nonpayable",
      "type": "function"
    },
    {
      "inputs": [
        {
          "internalType": "address",
          "name": "walletAddress",
          "type": "address"
        }
      ],
      "name": "setMarketingWallet",
      "outputs": [],
      "stateMutability": "nonpayable",
      "type": "function"
    },
    {
      "inputs": [
        {
          "internalType": "uint256",
          "name": "taxFee",
          "type": "uint256"
        }
      ],
      "name": "setTaxFeePercent",
      "outputs": [],
      "stateMutability": "nonpayable",
      "type": "function"
    },
    {
      "inputs": [
        {
          "internalType": "uint256",
          "name": "liquidityFee",
          "type": "uint256"
        }
      ],
      "name": "setLiquidityFeePercent",
      "outputs": [],
      "stateMutability": "nonpayable",
      "type": "function"
    },
    {
      "inputs": [
        {
          "internalType": "uint256",
          "name": "percentage",
          "type": "uint256"
        }
      ],
      "name": "setMaxTxAmountToPercentageOfTotalSupply",
      "outputs": [],
      "stateMutability": "nonpayable",
      "type": "function"
    },
    {
      "inputs": [
        {
          "internalType": "uint256",
          "name": "_swapThresholdPercent",
          "type": "uint256"
        }
      ],
      "name": "setSwapThresholdPercent",
      "outputs": [],
      "stateMutability": "nonpayable",
      "type": "function"
    },
    {
      "inputs": [],
      "name": "claimTokens",
      "outputs": [],
      "stateMutability": "nonpayable",
      "type": "function"
    },
    {
      "inputs": [
        {
          "internalType": "contract IERC20",
          "name": "tokenAddress",
          "type": "address"
        },
        {
          "internalType": "address",
          "name": "walletaddress",
          "type": "address"
        }
      ],
      "name": "claimOtherTokens",
      "outputs": [],
      "stateMutability": "nonpayable",
      "type": "function"
    },
    {
      "inputs": [
        {
          "internalType": "address payable",
          "name": "walletaddress",
          "type": "address"
        }
      ],
      "name": "clearStuckBalance",
      "outputs": [],
      "stateMutability": "nonpayable",
      "type": "function"
    },
    {
      "inputs": [
        {
          "internalType": "address",
          "name": "botwallet",
          "type": "address"
        }
      ],
      "name": "addBotWallet",
      "outputs": [],
      "stateMutability": "nonpayable",
      "type": "function"
    },
    {
      "inputs": [
        {
          "internalType": "address",
          "name": "botwallet",
          "type": "address"
        }
      ],
      "name": "removeBotWallet",
      "outputs": [],
      "stateMutability": "nonpayable",
      "type": "function"
    },
    {
      "inputs": [
        {
          "internalType": "address",
          "name": "botwallet",
          "type": "address"
        }
      ],
      "name": "getBotWalletStatus",
      "outputs": [
        {
          "internalType": "bool",
          "name": "",
          "type": "bool"
        }
      ],
      "stateMutability": "view",
      "type": "function"
    },
    {
      "inputs": [],
      "name": "allowtrading",
      "outputs": [],
      "stateMutability": "nonpayable",
      "type": "function"
    },
    {
      "inputs": [
        {
          "internalType": "bool",
          "name": "_enabled",
          "type": "bool"
        }
      ],
      "name": "setSwapAndLiquifyEnabled",
      "outputs": [],
      "stateMutability": "nonpayable",
      "type": "function"
    },
    {
      "inputs": [
        {
          "internalType": "address",
          "name": "account",
          "type": "address"
        }
      ],
      "name": "isExcludedFromFee",
      "outputs": [
        {
          "internalType": "bool",
          "name": "",
          "type": "bool"
        }
      ],
      "stateMutability": "view",
      "type": "function"
    }
  ],
  "bytecode": "0x60806040526009805461ffff191690556200002b6d0366e7064422fd842023400000006000196200141c565b620000399060001962001449565b600a55600c80546001600160a01b03191673a629f2de5a6e2cb4e96b84c0384b39eeef9601811790556005600d819055600e556026600f55600760108190556011556014805462ff00ff60a01b191690556064620000a76d0366e7064422fd8420234000000060016200145f565b620000b3919062001479565b6015556001601655348015620000c857600080fd5b506001600055620000d933620002f1565b600a5433600090815260026020908152604082209290925573a629f2de5a6e2cb4e96b84c0384b39eeef9601819173485274011c264882519a51e6f0054d3198521cdf917317f81df33f90f96937d99f672cf2c914d49f6d9391620001769060649062000162906d0366e7064422fd842023400000009060059062000343811b620018c617901c565b6200035a60201b620018d21790919060201c565b90506000620001a960646200016260056d0366e7064422fd842023400000006200034360201b620018c61790919060201c565b90506000620001dc60646200016260146d0366e7064422fd842023400000006200034360201b620018c61790919060201c565b9050620001eb33878562000368565b620001f833868462000368565b6200020533858362000368565b6001600560006200021e6001546001600160a01b031690565b6001600160a01b03908116825260208083019390935260409182016000908120805495151560ff1996871617905530815260059093528183208054851660019081179091558a821684528284208054861682179055898216845282842080548616821790559088168352912080549092161790556200029a3390565b6001600160a01b031660006001600160a01b0316600080516020620041008339815191526d0366e7064422fd84202340000000604051620002dd91815260200190565b60405180910390a350505050505062001576565b600180546001600160a01b038381166001600160a01b0319831681179093556040519116919082907f8be0079c531659141344cd1fd0a4f28419497f9722a3daafe3b4186f6b6457e090600090a35050565b60006200035182846200145f565b90505b92915050565b600062000351828462001479565b6001600160a01b038316620003d25760405162461bcd60e51b815260206004820152602560248201527f45524332303a207472616e736665722066726f6d20746865207a65726f206164604482015264647265737360d81b60648201526084015b60405180910390fd5b6001600160a01b038216620004365760405162461bcd60e51b815260206004820152602360248201527f45524332303a207472616e7366657220746f20746865207a65726f206164647260448201526265737360e81b6064820152608401620003c9565b600081116200049a5760405162461bcd60e51b815260206004820152602960248201527f5472616e7366657220616d6f756e74206d7573742062652067726561746572206044820152687468616e207a65726f60b81b6064820152608401620003c9565b6001546001600160a01b03848116911614801590620004c757506001546001600160a01b03838116911614155b156200053257601554811115620005325760405162461bcd60e51b815260206004820152602860248201527f5472616e7366657220616d6f756e74206578636565647320746865206d6178546044820152673c20b6b7bab73a1760c11b6064820152608401620003c9565b60006200053f3062000642565b905060006200057460646200016260165462000560620006a460201b60201c565b6200034360201b620018c61790919060201c565b90508082108015908190620005935750601454600160a81b900460ff16155b8015620005ae57506014546001600160a01b03878116911614155b8015620005c45750601454600160b01b900460ff165b15620005de57819250620005de83620006b660201b60201c565b6001600160a01b03861660009081526005602052604090205460019060ff16806200062157506001600160a01b03861660009081526005602052604090205460ff165b156200062b575060005b62000639878787846200081f565b50505050505050565b6001600160a01b03811660009081526006602052604081205460ff16156200068057506001600160a01b031660009081526003602052604090205490565b6001600160a01b038216600090815260026020526040902054620003549062000a23565b6d0366e7064422fd8420234000000090565b6040805160028082526060820183526000926020830190803683370190505090503081600081518110620006ee57620006ee62001490565b6001600160a01b03928316602091820292909201810191909152601354604080516315ab88c960e31b81529051919093169263ad5c46489260048083019391928290030181865afa15801562000748573d6000803e3d6000fd5b505050506040513d601f19601f820116820180604052508101906200076e9190620014a6565b8160018151811062000784576200078462001490565b6001600160a01b039283166020918202929092010152601354620007ac913091168462000abb565b60135460405163791ac94760e01b81526001600160a01b039091169063791ac94790620007e7908590600090869030904290600401620014d1565b600060405180830381600087803b1580156200080257600080fd5b505af115801562000817573d6000803e3d6000fd5b505050505050565b600954610100900460ff166200084a576001546001600160a01b038581169116146200084a57600080fd5b6001600160a01b03841660009081526008602052604090205460ff16806200088a57506001600160a01b03831660009081526008602052604090205460ff165b15620008e45760095460ff16620008e45760405162461bcd60e51b815260206004820152601b60248201527f626f7473206172656e7420616c6c6f77656420746f20747261646500000000006044820152606401620003c9565b80620008f457620008f462000be3565b6001600160a01b03841660009081526006602052604090205460ff1680156200093657506001600160a01b03831660009081526006602052604090205460ff16155b156200094f576200094984848462000c13565b62000a05565b6001600160a01b03841660009081526006602052604090205460ff161580156200099157506001600160a01b03831660009081526006602052604090205460ff165b15620009a4576200094984848462000d65565b6001600160a01b03841660009081526006602052604090205460ff168015620009e557506001600160a01b03831660009081526006602052604090205460ff165b15620009f8576200094984848462000e43565b62000a0584848462000edd565b8062000a1d5762000a1d600e54600d55601154601055565b50505050565b6000600a5482111562000a8c5760405162461bcd60e51b815260206004820152602a60248201527f416d6f756e74206d757374206265206c657373207468616e20746f74616c207260448201526965666c656374696f6e7360b01b6064820152608401620003c9565b600062000a9862000f3a565b905062000ab481846200035a60201b620018d21790919060201c565b9392505050565b6001600160a01b03831662000b1f5760405162461bcd60e51b8152602060048201526024808201527f45524332303a20617070726f76652066726f6d20746865207a65726f206164646044820152637265737360e01b6064820152608401620003c9565b6001600160a01b03821662000b825760405162461bcd60e51b815260206004820152602260248201527f45524332303a20617070726f766520746f20746865207a65726f206164647265604482015261737360f01b6064820152608401620003c9565b6001600160a01b0383811660008181526004602090815260408083209487168084529482529182902085905590518481527f8c5be1e5ebec7d5bd14f71427d1e84f3dd0314c0f7b2291e5b200ac8c7c3b925910160405180910390a3505050565b600d5415801562000bf45750601054155b1562000bfc57565b600d8054600e556010805460115560009182905555565b6000808080808062000c258762000f6d565b95509550955095509550955062000c7087600360008c6001600160a01b03166001600160a01b031681526020019081526020016000205462000fbe60201b620018de1790919060201c565b6001600160a01b038a16600090815260036020908152604080832093909355600281529190205462000cad918890620018de62000fbe821b17901c565b6001600160a01b03808b16600090815260026020908152604080832094909455918b168152919091205462000ced918790620018ea62000fcc821b17901c565b6001600160a01b03891660009081526002602052604090205562000d118162000fda565b62000d1d848362001095565b876001600160a01b0316896001600160a01b0316600080516020620041008339815191528560405162000d5291815260200190565b60405180910390a3505050505050505050565b6000808080808062000d778762000f6d565b95509550955095509550955062000dc286600260008c6001600160a01b03166001600160a01b031681526020019081526020016000205462000fbe60201b620018de1790919060201c565b6001600160a01b03808b16600090815260026020908152604080832094909455918b16815260038252919091205462000e06918590620018ea62000fcc821b17901c565b6001600160a01b038916600090815260036020908152604080832093909355600281529190205462000ced918790620018ea62000fcc821b17901c565b6000808080808062000e558762000f6d565b95509550955095509550955062000ea087600360008c6001600160a01b03166001600160a01b031681526020019081526020016000205462000fbe60201b620018de1790919060201c565b6001600160a01b038a16600090815260036020908152604080832093909355600281529190205462000dc2918890620018de62000fbe821b17901c565b6000808080808062000eef8762000f6d565b95509550955095509550955062000cad86600260008c6001600160a01b03166001600160a01b031681526020019081526020016000205462000fbe60201b620018de1790919060201c565b6000808062000f48620010da565b9150915062000f6681836200035a60201b620018d21790919060201c565b9250505090565b6000808080808080808062000f828a620012c8565b919450925090506000808062000fa48d868662000f9e62000f3a565b6200132c565b919f909e50909c50959a5093985091965092945050505050565b600062000351828462001449565b600062000351828462001544565b600062000fe662000f3a565b905060006200100482846200034360201b620018c61790919060201c565b306000908152600260209081526040909120549192506200103191908390620018ea62000fcc821b17901c565b3060009081526002602090815260408083209390935560069052205460ff16156200109057306000908152600360209081526040909120546200107f918590620018ea62000fcc821b17901c565b306000908152600360205260409020555b505050565b620010b182600a5462000fbe60201b620018de1790919060201c565b600a81905550620010d381600b5462000fcc60201b620018ea1790919060201c565b600b555050565b600a5460009081906d0366e7064422fd84202340000000825b600754811015620012715782600260006007848154811062001119576200111962001490565b60009182526020808320909101546001600160a01b03168352820192909252604001902054118062001188575081600360006007848154811062001161576200116162001490565b60009182526020808320909101546001600160a01b03168352820192909252604001902054115b15620011aa575050600a54936d0366e7064422fd842023400000009350915050565b620012016002600060078481548110620011c857620011c862001490565b60009182526020808320909101546001600160a01b031683528281019390935260409091019020548591620018de62000fbe821b17901c565b92506200125a600360006007848154811062001221576200122162001490565b60009182526020808320909101546001600160a01b031683528281019390935260409091019020548491620018de62000fbe821b17901c565b91508062001268816200155a565b915050620010f3565b506200129c6d0366e7064422fd84202340000000600a546200035a60201b620018d21790919060201c565b821015620012bf575050600a54926d0366e7064422fd8420234000000092509050565b90939092509050565b6000808080620012d885620013be565b90506000620012e786620013e2565b905060006200131e826200130a858a62000fbe60201b620018de1790919060201c565b62000fbe60201b620018de1790919060201c565b979296509094509092505050565b6000806000806200134c85896200034360201b620018c61790919060201c565b905060006200136a86896200034360201b620018c61790919060201c565b905060006200138887896200034360201b620018c61790919060201c565b90506000620013ab826200130a858762000fbe60201b620018de1790919060201c565b939b939a50919850919650505050505050565b600062000354606462000162600d54856200034360201b620018c61790919060201c565b600062000354606462000162601054856200034360201b620018c61790919060201c565b634e487b7160e01b600052601260045260246000fd5b6000826200142e576200142e62001406565b500690565b634e487b7160e01b600052601160045260246000fd5b8181038181111562000354576200035462001433565b808202811582820484141762000354576200035462001433565b6000826200148b576200148b62001406565b500490565b634e487b7160e01b600052603260045260246000fd5b600060208284031215620014b957600080fd5b81516001600160a01b038116811462000ab457600080fd5b600060a082018783526020878185015260a0604085015281875180845260c086019150828901935060005b81811015620015235784516001600160a01b031683529383019391830191600101620014fc565b50506001600160a01b03969096166060850152505050608001529392505050565b8082018082111562000354576200035462001433565b6000600182016200156f576200156f62001433565b5060010190565b612b7a80620015866000396000f3fe6080604052600436106103035760003560e01c806352390c02116101905780638ee88c53116100dc578063c49b9a8011610095578063dae8cbc21161006f578063dae8cbc214610949578063dd62ed3e14610969578063ea2f0b37146109af578063f2fde38b146109cf57600080fd5b8063c49b9a80146108f3578063d4a3883f14610913578063da6fa55c1461093357600080fd5b80638ee88c531461083b57806395d89b411461085b578063a457c2d714610888578063a6334231146108a8578063a9059cbb146108bd578063bafb1403146108dd57600080fd5b8063715018a6116101495780637d1db4a5116101235780637d1db4a5146107ae57806388f82020146107c45780638ba4cc3c146107fd5780638da5cb5b1461081d57600080fd5b8063715018a61461075957806375f0a8741461076e578063764d72bf1461078e57600080fd5b806352390c02146106715780635342acb4146106915780635d098b38146106ca57806360d48489146106ea5780636bc87c3a1461072357806370a082311461073957600080fd5b8063313ce5671161024f5780633f0f02eb11610208578063457c194c116101e2578063457c194c146105fb57806348c54b9d1461061b57806349bd5a5e146106305780634a74bb021461065057600080fd5b80633f0f02eb146105a5578063437823ec146105bb5780634549b039146105db57600080fd5b8063313ce567146104f35780633685d4191461050f578063395093511461052f5780633ae7dc201461054f5780633b124fe71461056f5780633bd5d1731461058557600080fd5b80631694505e116102bc57806328246edc1161029657806328246edc146104745780632a360631146104945780632d838119146104b45780632f05205c146104d457600080fd5b80631694505e146103fc57806318160ddd1461043457806323b872dd1461045457600080fd5b80630305caff1461030f578063061c82d01461033157806306fdde0314610351578063095ea7b3146103985780630bf01887146103c857806313114a9d146103dd57600080fd5b3661030a57005b600080fd5b34801561031b57600080fd5b5061032f61032a366004612747565b6109ef565b005b34801561033d57600080fd5b5061032f61034c366004612764565b610a18565b34801561035d57600080fd5b5060408051808201909152600c81526b496e766173696f6e4d61727360a01b60208201525b60405161038f919061277d565b60405180910390f35b3480156103a457600080fd5b506103b86103b33660046127cb565b610a7a565b604051901515815260200161038f565b3480156103d457600080fd5b5061032f610a91565b3480156103e957600080fd5b50600b545b60405190815260200161038f565b34801561040857600080fd5b5060135461041c906001600160a01b031681565b6040516001600160a01b03909116815260200161038f565b34801561044057600080fd5b50690d9b9c19108bf610808d601e1b6103ee565b34801561046057600080fd5b506103b861046f3660046127f7565b610ca0565b34801561048057600080fd5b5061032f61048f366004612764565b610d09565b3480156104a057600080fd5b5061032f6104af366004612747565b610d7c565b3480156104c057600080fd5b506103ee6104cf366004612764565b610da8565b3480156104e057600080fd5b506009546103b890610100900460ff1681565b3480156104ff57600080fd5b506040516012815260200161038f565b34801561051b57600080fd5b5061032f61052a366004612747565b610e2c565b34801561053b57600080fd5b506103b861054a3660046127cb565b610fc0565b34801561055b57600080fd5b5061032f61056a366004612838565b610ff6565b34801561057b57600080fd5b506103ee600d5481565b34801561059157600080fd5b5061032f6105a0366004612764565b611146565b3480156105b157600080fd5b506103ee60125481565b3480156105c757600080fd5b5061032f6105d6366004612747565b611230565b3480156105e757600080fd5b506103ee6105f636600461287f565b61125c565b34801561060757600080fd5b5061032f610616366004612764565b6112f4565b34801561062757600080fd5b5061032f61136c565b34801561063c57600080fd5b5060145461041c906001600160a01b031681565b34801561065c57600080fd5b506014546103b890600160b01b900460ff1681565b34801561067d57600080fd5b5061032f61068c366004612747565b6113b0565b34801561069d57600080fd5b506103b86106ac366004612747565b6001600160a01b031660009081526005602052604090205460ff1690565b3480156106d657600080fd5b5061032f6106e5366004612747565b6114e1565b3480156106f657600080fd5b506103b8610705366004612747565b6001600160a01b031660009081526008602052604090205460ff1690565b34801561072f57600080fd5b506103ee60105481565b34801561074557600080fd5b506103ee610754366004612747565b61150b565b34801561076557600080fd5b5061032f61156a565b34801561077a57600080fd5b50600c5461041c906001600160a01b031681565b34801561079a57600080fd5b5061032f6107a9366004612747565b61157e565b3480156107ba57600080fd5b506103ee60155481565b3480156107d057600080fd5b506103b86107df366004612747565b6001600160a01b031660009081526006602052604090205460ff1690565b34801561080957600080fd5b5061032f6108183660046127cb565b6115bb565b34801561082957600080fd5b506001546001600160a01b031661041c565b34801561084757600080fd5b5061032f610856366004612764565b6115e7565b34801561086757600080fd5b50604080518082019091526004815263494d363960e01b6020820152610382565b34801561089457600080fd5b506103b86108a33660046127cb565b6115f4565b3480156108b457600080fd5b5061032f611643565b3480156108c957600080fd5b506103b86108d83660046127cb565b61165c565b3480156108e957600080fd5b506103ee60165481565b3480156108ff57600080fd5b5061032f61090e3660046128a4565b611669565b34801561091f57600080fd5b5061032f61092e36600461290d565b6116c9565b34801561093f57600080fd5b506103ee600f5481565b34801561095557600080fd5b5061032f610964366004612764565b61178b565b34801561097557600080fd5b506103ee610984366004612838565b6001600160a01b03918216600090815260046020908152604080832093909416825291909152205490565b3480156109bb57600080fd5b5061032f6109ca366004612747565b611827565b3480156109db57600080fd5b5061032f6109ea366004612747565b611850565b6109f76118f6565b6001600160a01b03166000908152600860205260409020805460ff19169055565b610a206118f6565b600a8110610a755760405162461bcd60e51b815260206004820152601f60248201527f546178206665652063616e6e6f74206265206d6f7265207468616e203130250060448201526064015b60405180910390fd5b600d55565b6000610a87338484611950565b5060015b92915050565b610a996118f6565b601454600160a01b900460ff1615610b015760405162461bcd60e51b815260206004820152602560248201527f556e69737761702068617320616c7265616479206265656e20696e697469616c60448201526434bd32b21760d91b6064820152608401610a6c565b6000737a250d5630b4cf539739df2c5dacb4c659f2488d90506000819050806001600160a01b031663c45a01556040518163ffffffff1660e01b8152600401602060405180830381865afa158015610b5d573d6000803e3d6000fd5b505050506040513d601f19601f82011682018060405250810190610b819190612979565b6001600160a01b031663c9c6539630836001600160a01b031663ad5c46486040518163ffffffff1660e01b8152600401602060405180830381865afa158015610bce573d6000803e3d6000fd5b505050506040513d601f19601f82011682018060405250810190610bf29190612979565b6040516001600160e01b031960e085901b1681526001600160a01b039283166004820152911660248201526044016020604051808303816000875af1158015610c3f573d6000803e3d6000fd5b505050506040513d601f19601f82011682018060405250810190610c639190612979565b60148054601380546001600160a01b039586166001600160a01b0319919091161790556001600160a81b0319169190921617600160a01b17905550565b6000610cad848484611a74565b610cff8433610cfa85604051806060016040528060288152602001612af8602891396001600160a01b038a1660009081526004602090815260408083203384529091529020549190611d28565b611950565b5060019392505050565b610d116118f6565b60008111610d775760405162461bcd60e51b815260206004820152602d60248201527f53776170207468726573686f6c642070657263656e74206d757374206265206760448201526c0726561746572207468616e203609c1b6064820152608401610a6c565b601655565b610d846118f6565b6001600160a01b03166000908152600860205260409020805460ff19166001179055565b6000600a54821115610e0f5760405162461bcd60e51b815260206004820152602a60248201527f416d6f756e74206d757374206265206c657373207468616e20746f74616c207260448201526965666c656374696f6e7360b01b6064820152608401610a6c565b6000610e19611d54565b9050610e2583826118d2565b9392505050565b610e346118f6565b6001600160a01b03811660009081526006602052604090205460ff16610e9c5760405162461bcd60e51b815260206004820152601c60248201527f4163636f756e74206e6f7420616c7265616479206578636c75646564000000006044820152606401610a6c565b60005b600754811015610fbc57816001600160a01b031660078281548110610ec657610ec6612996565b6000918252602090912001546001600160a01b031603610faa5760078054610ef0906001906129c2565b81548110610f0057610f00612996565b600091825260209091200154600780546001600160a01b039092169183908110610f2c57610f2c612996565b600091825260208083209190910180546001600160a01b0319166001600160a01b039485161790559184168152600382526040808220829055600690925220805460ff191690556007805480610f8457610f846129d5565b600082815260209020810160001990810180546001600160a01b03191690550190555050565b80610fb4816129eb565b915050610e9f565b5050565b3360008181526004602090815260408083206001600160a01b03871684529091528120549091610a87918590610cfa90866118ea565b610ffe6118f6565b306001600160a01b038316036110605760405162461bcd60e51b815260206004820152602160248201527f63616e277420776974686472617720496e766173696f6e4d61727320746f6b656044820152603760f91b6064820152608401610a6c565b6040516370a0823160e01b81523060048201526001600160a01b0383169063a9059cbb90839083906370a0823190602401602060405180830381865afa1580156110ae573d6000803e3d6000fd5b505050506040513d601f19601f820116820180604052508101906110d29190612a04565b6040516001600160e01b031960e085901b1681526001600160a01b03909216600483015260248201526044016020604051808303816000875af115801561111d573d6000803e3d6000fd5b505050506040513d601f19601f820116820180604052508101906111419190612a1d565b505050565b3360008181526006602052604090205460ff16156111bb5760405162461bcd60e51b815260206004820152602c60248201527f4578636c75646564206164647265737365732063616e6e6f742063616c6c207460448201526b3434b990333ab731ba34b7b760a11b6064820152608401610a6c565b60006111c683611d77565b505050506001600160a01b0384166000908152600260205260409020549192506111f2919050826118de565b6001600160a01b038316600090815260026020526040902055600a5461121890826118de565b600a55600b5461122890846118ea565b600b55505050565b6112386118f6565b6001600160a01b03166000908152600560205260409020805460ff19166001179055565b6000690d9b9c19108bf610808d601e1b8311156112bb5760405162461bcd60e51b815260206004820152601f60248201527f416d6f756e74206d757374206265206c657373207468616e20737570706c79006044820152606401610a6c565b816112da5760006112cb84611d77565b50939550610a8b945050505050565b60006112e584611d77565b50929550610a8b945050505050565b6112fc6118f6565b603281106113675760405162461bcd60e51b815260206004820152603260248201527f4d61726b6574696e67206665652063616e6e6f74206265206d6f7265207468616044820152716e20353025206f66206c697175696469747960701b6064820152608401610a6c565b600f55565b6113746118f6565b600c546040516001600160a01b03909116904780156108fc02916000818181858888f193505050501580156113ad573d6000803e3d6000fd5b50565b6113b86118f6565b6001600160a01b03811660009081526006602052604090205460ff16156114215760405162461bcd60e51b815260206004820152601c60248201527f4163636f756e74206e6f7420616c7265616479206578636c75646564000000006044820152606401610a6c565b6001600160a01b0381166000908152600260205260409020541561147b576001600160a01b03811660009081526002602052604090205461146190610da8565b6001600160a01b0382166000908152600360205260409020555b6001600160a01b03166000818152600660205260408120805460ff191660019081179091556007805491820181559091527fa66cc928b5edb82af9bd49922954155ab7b0942694bea4ce44661d9a8736c6880180546001600160a01b0319169091179055565b6114e96118f6565b600c80546001600160a01b0319166001600160a01b0392909216919091179055565b6001600160a01b03811660009081526006602052604081205460ff161561154857506001600160a01b031660009081526003602052604090205490565b6001600160a01b038216600090815260026020526040902054610a8b90610da8565b6115726118f6565b61157c6000611dc6565b565b6115866118f6565b6040516001600160a01b038216904780156108fc02916000818181858888f19350505050158015610fbc573d6000803e3d6000fd5b6115c36118f6565b6115cb611e18565b6115d6338383611a74565b610fbc600e54600d55601154601055565b6115ef6118f6565b601055565b6000610a873384610cfa85604051806060016040528060258152602001612b20602591393360009081526004602090815260408083206001600160a01b038d1684529091529020549190611d28565b61164b6118f6565b6009805461ff001916610100179055565b6000610a87338484611a74565b6116716118f6565b60148054821515600160b01b0260ff60b01b199091161790556040517f53726dfcaf90650aa7eb35524f4d3220f07413c8d6cb404cc8c18bf5591bc159906116be90831515815260200190565b60405180910390a150565b6116d16118f6565b60008382146117225760405162461bcd60e51b815260206004820152601760248201527f6d757374206265207468652073616d65206c656e6774680000000000000000006044820152606401610a6c565b838110156117845761177285858381811061173f5761173f612996565b90506020020160208101906117549190612747565b84848481811061176657611766612996565b905060200201356115c3565b61177d600182612a3a565b9050611722565b5050505050565b6117936118f6565b6000811180156117a4575060648111155b6117fc5760405162461bcd60e51b8152602060048201526024808201527f50657263656e74616765206d757374206265206265747765656e203120616e646044820152630203130360e41b6064820152608401610a6c565b690d9b9c19108bf610808d601e1b60646118168383612a4d565b6118209190612a64565b6015555050565b61182f6118f6565b6001600160a01b03166000908152600560205260409020805460ff19169055565b6118586118f6565b6001600160a01b0381166118bd5760405162461bcd60e51b815260206004820152602660248201527f4f776e61626c653a206e6577206f776e657220697320746865207a65726f206160448201526564647265737360d01b6064820152608401610a6c565b6113ad81611dc6565b6000610e258284612a4d565b6000610e258284612a64565b6000610e2582846129c2565b6000610e258284612a3a565b6001546001600160a01b0316331461157c5760405162461bcd60e51b815260206004820181905260248201527f4f776e61626c653a2063616c6c6572206973206e6f7420746865206f776e65726044820152606401610a6c565b6001600160a01b0383166119b25760405162461bcd60e51b8152602060048201526024808201527f45524332303a20617070726f76652066726f6d20746865207a65726f206164646044820152637265737360e01b6064820152608401610a6c565b6001600160a01b038216611a135760405162461bcd60e51b815260206004820152602260248201527f45524332303a20617070726f766520746f20746865207a65726f206164647265604482015261737360f01b6064820152608401610a6c565b6001600160a01b0383811660008181526004602090815260408083209487168084529482529182902085905590518481527f8c5be1e5ebec7d5bd14f71427d1e84f3dd0314c0f7b2291e5b200ac8c7c3b925910160405180910390a3505050565b6001600160a01b038316611ad85760405162461bcd60e51b815260206004820152602560248201527f45524332303a207472616e736665722066726f6d20746865207a65726f206164604482015264647265737360d81b6064820152608401610a6c565b6001600160a01b038216611b3a5760405162461bcd60e51b815260206004820152602360248201527f45524332303a207472616e7366657220746f20746865207a65726f206164647260448201526265737360e81b6064820152608401610a6c565b60008111611b9c5760405162461bcd60e51b815260206004820152602960248201527f5472616e7366657220616d6f756e74206d7573742062652067726561746572206044820152687468616e207a65726f60b81b6064820152608401610a6c565b6001546001600160a01b03848116911614801590611bc857506001546001600160a01b03838116911614155b15611c3057601554811115611c305760405162461bcd60e51b815260206004820152602860248201527f5472616e7366657220616d6f756e74206578636565647320746865206d6178546044820152673c20b6b7bab73a1760c11b6064820152608401610a6c565b6000611c3b3061150b565b90506000611c6a6064611c64601654611c5e690d9b9c19108bf610808d601e1b90565b906118c6565b906118d2565b90508082108015908190611c885750601454600160a81b900460ff16155b8015611ca257506014546001600160a01b03878116911614155b8015611cb75750601454600160b01b900460ff165b15611cc857819250611cc883611e46565b6001600160a01b03861660009081526005602052604090205460019060ff1680611d0a57506001600160a01b03861660009081526005602052604090205460ff165b15611d13575060005b611d1f87878784611fa0565b50505050505050565b60008184841115611d4c5760405162461bcd60e51b8152600401610a6c919061277d565b505050900390565b6000806000611d6161218a565b9092509050611d7082826118d2565b9250505090565b6000806000806000806000806000611d8e8a612336565b9250925092506000806000611dac8d8686611da7611d54565b612378565b919f909e50909c50959a5093985091965092945050505050565b600180546001600160a01b038381166001600160a01b0319831681179093556040519116919082907f8be0079c531659141344cd1fd0a4f28419497f9722a3daafe3b4186f6b6457e090600090a35050565b600d54158015611e285750601054155b15611e2f57565b600d8054600e556010805460115560009182905555565b6040805160028082526060820183526000926020830190803683370190505090503081600081518110611e7b57611e7b612996565b6001600160a01b03928316602091820292909201810191909152601354604080516315ab88c960e31b81529051919093169263ad5c46489260048083019391928290030181865afa158015611ed4573d6000803e3d6000fd5b505050506040513d601f19601f82011682018060405250810190611ef89190612979565b81600181518110611f0b57611f0b612996565b6001600160a01b039283166020918202929092010152601354611f319130911684611950565b60135460405163791ac94760e01b81526001600160a01b039091169063791ac94790611f6a908590600090869030904290600401612a86565b600060405180830381600087803b158015611f8457600080fd5b505af1158015611f98573d6000803e3d6000fd5b505050505050565b600954610100900460ff16611fc9576001546001600160a01b03858116911614611fc957600080fd5b6001600160a01b03841660009081526008602052604090205460ff168061200857506001600160a01b03831660009081526008602052604090205460ff165b1561205f5760095460ff1661205f5760405162461bcd60e51b815260206004820152601b60248201527f626f7473206172656e7420616c6c6f77656420746f20747261646500000000006044820152606401610a6c565b8061206c5761206c611e18565b6001600160a01b03841660009081526006602052604090205460ff1680156120ad57506001600160a01b03831660009081526006602052604090205460ff16155b156120c2576120bd8484846123c8565b61216e565b6001600160a01b03841660009081526006602052604090205460ff1615801561210357506001600160a01b03831660009081526006602052604090205460ff165b15612113576120bd8484846124ee565b6001600160a01b03841660009081526006602052604090205460ff16801561215357506001600160a01b03831660009081526006602052604090205460ff165b15612163576120bd848484612597565b61216e84848461260a565b8061218457612184600e54600d55601154601055565b50505050565b600a546000908190690d9b9c19108bf610808d601e1b825b6007548110156122f1578260026000600784815481106121c4576121c4612996565b60009182526020808320909101546001600160a01b03168352820192909252604001902054118061222f575081600360006007848154811061220857612208612996565b60009182526020808320909101546001600160a01b03168352820192909252604001902054115b1561224f575050600a5493690d9b9c19108bf610808d601e1b9350915050565b612295600260006007848154811061226957612269612996565b60009182526020808320909101546001600160a01b0316835282019290925260400190205484906118de565b92506122dd60036000600784815481106122b1576122b1612996565b60009182526020808320909101546001600160a01b0316835282019290925260400190205483906118de565b9150806122e9816129eb565b9150506121a2565b50600a5461230c90690d9b9c19108bf610808d601e1b6118d2565b82101561232d575050600a5492690d9b9c19108bf610808d601e1b92509050565b90939092509050565b6000806000806123458561264e565b905060006123528661266a565b9050600061236a8261236489866118de565b906118de565b979296509094509092505050565b600080808061238788866118c6565b9050600061239588876118c6565b905060006123a388886118c6565b905060006123b58261236486866118de565b939b939a50919850919650505050505050565b6000806000806000806123da87611d77565b6001600160a01b038f16600090815260036020526040902054959b5093995091975095509350915061240c90886118de565b6001600160a01b038a1660009081526003602090815260408083209390935560029052205461243b90876118de565b6001600160a01b03808b1660009081526002602052604080822093909355908a168152205461246a90866118ea565b6001600160a01b03891660009081526002602052604090205561248c81612686565b612496848361270e565b876001600160a01b0316896001600160a01b03167fddf252ad1be2c89b69c2b068fc378daa952ba7f163c4a11628f55a4df523b3ef856040516124db91815260200190565b60405180910390a3505050505050505050565b60008060008060008061250087611d77565b6001600160a01b038f16600090815260026020526040902054959b5093995091975095509350915061253290876118de565b6001600160a01b03808b16600090815260026020908152604080832094909455918b1681526003909152205461256890846118ea565b6001600160a01b03891660009081526003602090815260408083209390935560029052205461246a90866118ea565b6000806000806000806125a987611d77565b6001600160a01b038f16600090815260036020526040902054959b509399509197509550935091506125db90886118de565b6001600160a01b038a1660009081526003602090815260408083209390935560029052205461253290876118de565b60008060008060008061261c87611d77565b6001600160a01b038f16600090815260026020526040902054959b5093995091975095509350915061243b90876118de565b6000610a8b6064611c64600d54856118c690919063ffffffff16565b6000610a8b6064611c64601054856118c690919063ffffffff16565b6000612690611d54565b9050600061269e83836118c6565b306000908152600260205260409020549091506126bb90826118ea565b3060009081526002602090815260408083209390935560069052205460ff161561114157306000908152600360205260409020546126f990846118ea565b30600090815260036020526040902055505050565b600a5461271b90836118de565b600a55600b5461272b90826118ea565b600b555050565b6001600160a01b03811681146113ad57600080fd5b60006020828403121561275957600080fd5b8135610e2581612732565b60006020828403121561277657600080fd5b5035919050565b600060208083528351808285015260005b818110156127aa5785810183015185820160400152820161278e565b506000604082860101526040601f19601f8301168501019250505092915050565b600080604083850312156127de57600080fd5b82356127e981612732565b946020939093013593505050565b60008060006060848603121561280c57600080fd5b833561281781612732565b9250602084013561282781612732565b929592945050506040919091013590565b6000806040838503121561284b57600080fd5b823561285681612732565b9150602083013561286681612732565b809150509250929050565b80151581146113ad57600080fd5b6000806040838503121561289257600080fd5b82359150602083013561286681612871565b6000602082840312156128b657600080fd5b8135610e2581612871565b60008083601f8401126128d357600080fd5b50813567ffffffffffffffff8111156128eb57600080fd5b6020830191508360208260051b850101111561290657600080fd5b9250929050565b6000806000806040858703121561292357600080fd5b843567ffffffffffffffff8082111561293b57600080fd5b612947888389016128c1565b9096509450602087013591508082111561296057600080fd5b5061296d878288016128c1565b95989497509550505050565b60006020828403121561298b57600080fd5b8151610e2581612732565b634e487b7160e01b600052603260045260246000fd5b634e487b7160e01b600052601160045260246000fd5b81810381811115610a8b57610a8b6129ac565b634e487b7160e01b600052603160045260246000fd5b6000600182016129fd576129fd6129ac565b5060010190565b600060208284031215612a1657600080fd5b5051919050565b600060208284031215612a2f57600080fd5b8151610e2581612871565b80820180821115610a8b57610a8b6129ac565b8082028115828204841417610a8b57610a8b6129ac565b600082612a8157634e487b7160e01b600052601260045260246000fd5b500490565b600060a082018783526020878185015260a0604085015281875180845260c086019150828901935060005b81811015612ad65784516001600160a01b031683529383019391830191600101612ab1565b50506001600160a01b0396909616606085015250505060800152939250505056fe45524332303a207472616e7366657220616d6f756e74206578636565647320616c6c6f77616e636545524332303a2064656372656173656420616c6c6f77616e63652062656c6f77207a65726fa264697066735822122057695d86f3153af5dfc49f4273c92101b5c1c62cb527640e07f14a118d156ad464736f6c63430008110033ddf252ad1be2c89b69c2b068fc378daa952ba7f163c4a11628f55a4df523b3ef",
  "immutableReferences": {},
  "source": "// SPDX-License-Identifier: MIT\r\n/** \r\nTelegram Portal: https://t.me/pulseunity1\r\nWebsite: https://spacecampmars.com\r\nTwitter: https://twitter.com/pulseunity1\r\nNFTS: https://pulseunity.com\r\nWIKI: https://unityindefi.com\r\n */\r\npragma solidity ^0.8.17;\r\n\r\nimport \"@openzeppelin/contracts/utils/Context.sol\";\r\nimport \"@openzeppelin/contracts/token/ERC20/ERC20.sol\";\r\nimport \"@openzeppelin/contracts/token/ERC20/IERC20.sol\";\r\nimport \"@openzeppelin/contracts/access/Ownable.sol\";\r\nimport \"@openzeppelin/contracts/security/ReentrancyGuard.sol\";\r\nimport \"@openzeppelin/contracts/utils/math/SafeMath.sol\";\r\nimport \"@openzeppelin/contracts/utils/Address.sol\";\r\nimport \"@uniswap/v2-core/contracts/interfaces/IUniswapV2Pair.sol\";\r\nimport \"@uniswap/v2-periphery/contracts/interfaces/IUniswapV2Router02.sol\";\r\nimport \"@uniswap/v2-core/contracts/interfaces/IUniswapV2Factory.sol\";\r\n\r\n\r\ncontract InvasionMars is Context, IERC20, ReentrancyGuard, Ownable {\r\n    using SafeMath for uint256;\r\n    using Address for address;\r\n\r\n    mapping (address => uint256) private _rOwned;\r\n    mapping (address => uint256) private _tOwned;\r\n    mapping (address => mapping (address => uint256)) private _allowances;\r\n\r\n    mapping (address => bool) private _isExcludedFromFee;\r\n\r\n    mapping (address => bool) private _isExcluded;\r\n    address[] private _excluded;\r\n\r\n    mapping (address => bool) private botWallets;\r\n    bool botscantrade = false;\r\n    \r\n    bool public canTrade = false;\r\n   \r\n    uint256 private constant MAX = ~uint256(0);\r\n    uint256 private constant _tTotal = 69 * (10 ** 12) * (10 ** 18);\r\n    uint256 private _rTotal = (MAX - (MAX % _tTotal));\r\n    uint256 private _tFeeTotal;\r\n    address public marketingWallet = 0xa629f2De5a6E2cB4e96B84c0384b39EeEf960181;\r\n\r\n    string private constant _name = \"InvasionMars\";\r\n    string private constant _symbol = \"IM69\";\r\n    uint8 private constant _decimals = 18;\r\n    \r\n    uint256 public _taxFee = 5; \r\n    uint256 private _previousTaxFee = _taxFee;\r\n\r\n    uint256 public marketingFeePercent = 38; \r\n    \r\n    uint256 public _liquidityFee = 7; \r\n    uint256 private _previousLiquidityFee = _liquidityFee;\r\n\r\n    uint256 public initialTokenLiquidity;\r\n\r\n    IUniswapV2Router02 public uniswapV2Router;\r\n    address public uniswapV2Pair;\r\n    bool private uniswapInitialized = false;\r\n    \r\n    bool inSwapAndLiquify;\r\n    bool public swapAndLiquifyEnabled = false;\r\n    \r\n    uint256 public _maxTxAmount = (_tTotal * 1) / 100; //Transaction amount deals with MAX buy/sell, Update before MAINNET\r\n\r\n   uint256 public swapThresholdPercent = 1; \r\n    \r\n    event MinTokensBeforeSwapUpdated(uint256 minTokensBeforeSwap);\r\n    event SwapAndLiquifyEnabledUpdated(bool enabled);\r\n    event SwapAndLiquify(\r\n        uint256 tokensSwapped,\r\n        uint256 ethReceived,\r\n        uint256 tokensIntoLiquidity\r\n    );\r\n    \r\n    modifier lockTheSwap {\r\n        inSwapAndLiquify = true;\r\n        _;\r\n        inSwapAndLiquify = false;\r\n    }\r\n    \r\n        constructor () {\r\n    _rOwned[_msgSender()] = _rTotal;\r\n\r\n    address airdropWallet = 0xa629f2De5a6E2cB4e96B84c0384b39EeEf960181;\r\n    address liquidityWallet = 0x485274011c264882519A51E6F0054D3198521cDF;\r\n    address exchangesWallet = 0x17f81dF33F90F96937d99F672cf2C914D49f6D93;\r\n\r\n    uint256 airdropAmount = _tTotal.mul(5).div(100); // 5%\r\n    uint256 liquidityAmount = _tTotal.mul(5).div(100); // 5%\r\n    uint256 exchangesAmount = _tTotal.mul(20).div(100); // 20%\r\n\r\n    // Transfer tokens to the specified wallets\r\n    _transfer(_msgSender(), airdropWallet, airdropAmount);\r\n    _transfer(_msgSender(), liquidityWallet, liquidityAmount);\r\n    _transfer(_msgSender(), exchangesWallet, exchangesAmount);\r\n\r\n    _isExcludedFromFee[owner()] = true;\r\n    _isExcludedFromFee[address(this)] = true;\r\n    _isExcludedFromFee[airdropWallet] = true;\r\n    _isExcludedFromFee[liquidityWallet] = true;\r\n    _isExcludedFromFee[exchangesWallet] = true;\r\n\r\n    emit Transfer(address(0), _msgSender(), _tTotal);\r\n}\r\n\r\n\r\n    function initializeUniswap() external onlyOwner {\r\n        require(!uniswapInitialized, \"Uniswap has already been initialized.\");\r\n\r\n        \r\n        address routerAddress = 0x7a250d5630B4cF539739dF2C5dAcb4c659F2488D;\r\n\r\n        IUniswapV2Router02 _uniswapV2Router = IUniswapV2Router02(routerAddress);\r\n        uniswapV2Pair = IUniswapV2Factory(_uniswapV2Router.factory()).createPair(address(this), _uniswapV2Router.WETH());\r\n        uniswapV2Router = _uniswapV2Router;\r\n\r\n        uniswapInitialized = true;\r\n    }\r\n\r\n\r\n    function name() public pure returns (string memory) {\r\n        return _name;\r\n    }\r\n\r\n    function symbol() public pure returns (string memory) {\r\n        return _symbol;\r\n    }\r\n\r\n    function decimals() public pure returns (uint8) {\r\n        return _decimals;\r\n    }\r\n\r\n    function totalSupply() public pure override returns (uint256) {\r\n        return _tTotal;\r\n    }\r\n\r\n    function balanceOf(address account) public view override returns (uint256) {\r\n        if (_isExcluded[account]) return _tOwned[account];\r\n        return tokenFromReflection(_rOwned[account]);\r\n    }\r\n\r\n    function transfer(address recipient, uint256 amount) public override returns (bool) {\r\n        _transfer(_msgSender(), recipient, amount);\r\n        return true;\r\n    }\r\n\r\n    function allowance(address owner, address spender) public view override returns (uint256) {\r\n        return _allowances[owner][spender];\r\n    }\r\n\r\n    function approve(address spender, uint256 amount) public override returns (bool) {\r\n        _approve(_msgSender(), spender, amount);\r\n        return true;\r\n    }\r\n\r\n    function transferFrom(address sender, address recipient, uint256 amount) public override returns (bool) {\r\n        _transfer(sender, recipient, amount);\r\n        _approve(sender, _msgSender(), _allowances[sender][_msgSender()].sub(amount, \"ERC20: transfer amount exceeds allowance\"));\r\n        return true;\r\n    }\r\n\r\n    function increaseAllowance(address spender, uint256 addedValue) public virtual returns (bool) {\r\n        _approve(_msgSender(), spender, _allowances[_msgSender()][spender].add(addedValue));\r\n        return true;\r\n    }\r\n\r\n    function decreaseAllowance(address spender, uint256 subtractedValue) public virtual returns (bool) {\r\n        _approve(_msgSender(), spender, _allowances[_msgSender()][spender].sub(subtractedValue, \"ERC20: decreased allowance below zero\"));\r\n        return true;\r\n    }\r\n\r\n    function isExcludedFromReward(address account) public view returns (bool) {\r\n        return _isExcluded[account];\r\n    }\r\n\r\n    function totalFees() public view returns (uint256) {\r\n        return _tFeeTotal;\r\n    }\r\n    \r\n   \r\n    \r\n    function airdrop(address recipient, uint256 amount) external onlyOwner() {\r\n        removeAllFee();\r\n        _transfer(_msgSender(), recipient, amount);\r\n        restoreAllFee();\r\n    }\r\n\r\n    function airdropInternal(address recipient, uint256 amount) internal {\r\n        removeAllFee();\r\n        _transfer(_msgSender(), recipient, amount);\r\n        restoreAllFee();\r\n    }\r\n\r\n    function airdropArray(address[] calldata newholders, uint256[] calldata amounts) external onlyOwner(){\r\n        uint256 iterator = 0;\r\n        require(newholders.length == amounts.length, \"must be the same length\");\r\n        while(iterator < newholders.length){\r\n            airdropInternal(newholders[iterator], amounts[iterator]);\r\n            iterator += 1;\r\n        }\r\n    }\r\n\r\n\r\n    function deliver(uint256 tAmount) public {\r\n        address sender = _msgSender();\r\n        require(!_isExcluded[sender], \"Excluded addresses cannot call this function\");\r\n        (uint256 rAmount,,,,,) = _getValues(tAmount);\r\n        _rOwned[sender] = _rOwned[sender].sub(rAmount);\r\n        _rTotal = _rTotal.sub(rAmount);\r\n        _tFeeTotal = _tFeeTotal.add(tAmount);\r\n    }\r\n\r\n    function reflectionFromToken(uint256 tAmount, bool deductTransferFee) public view returns(uint256) {\r\n        require(tAmount <= _tTotal, \"Amount must be less than supply\");\r\n        if (!deductTransferFee) {\r\n            (uint256 rAmount,,,,,) = _getValues(tAmount);\r\n            return rAmount;\r\n        } else {\r\n            (,uint256 rTransferAmount,,,,) = _getValues(tAmount);\r\n            return rTransferAmount;\r\n        }\r\n    }\r\n\r\n    function tokenFromReflection(uint256 rAmount) public view returns(uint256) {\r\n        require(rAmount <= _rTotal, \"Amount must be less than total reflections\");\r\n        uint256 currentRate =  _getRate();\r\n        return rAmount.div(currentRate);\r\n    }\r\n\r\n    function excludeFromReward(address account) public onlyOwner() {\r\n        require(!_isExcluded[account], \"Account not already excluded\");\r\n        if(_rOwned[account] > 0) {\r\n            _tOwned[account] = tokenFromReflection(_rOwned[account]);\r\n        }\r\n        _isExcluded[account] = true;\r\n        _excluded.push(account);\r\n    }\r\n\r\n    function includeInReward(address account) external onlyOwner() {\r\n        require(_isExcluded[account], \"Account not already excluded\");\r\n        for (uint256 i = 0; i < _excluded.length; i++) {\r\n            if (_excluded[i] == account) {\r\n                _excluded[i] = _excluded[_excluded.length - 1];\r\n                _tOwned[account] = 0;\r\n                _isExcluded[account] = false;\r\n                _excluded.pop();\r\n                break;\r\n            }\r\n        }\r\n    }\r\n        function _transferBothExcluded(address sender, address recipient, uint256 tAmount) private {\r\n        (uint256 rAmount, uint256 rTransferAmount, uint256 rFee, uint256 tTransferAmount, uint256 tFee, uint256 tLiquidity) = _getValues(tAmount);\r\n        _tOwned[sender] = _tOwned[sender].sub(tAmount);\r\n        _rOwned[sender] = _rOwned[sender].sub(rAmount);\r\n        _tOwned[recipient] = _tOwned[recipient].add(tTransferAmount);\r\n        _rOwned[recipient] = _rOwned[recipient].add(rTransferAmount);        \r\n        _takeLiquidity(tLiquidity);\r\n        _reflectFee(rFee, tFee);\r\n        emit Transfer(sender, recipient, tTransferAmount);\r\n    }\r\n    \r\n    function excludeFromFee(address account) public onlyOwner {\r\n        _isExcludedFromFee[account] = true;\r\n    }\r\n    \r\n    function includeInFee(address account) public onlyOwner {\r\n        _isExcludedFromFee[account] = false;\r\n    }\r\n    \r\n    function setMarketingFeePercent(uint256 fee) public onlyOwner {\r\n        require(fee < 50, \"Marketing fee cannot be more than 50% of liquidity\");\r\n        marketingFeePercent = fee;\r\n    }\r\n\r\n    function setMarketingWallet(address walletAddress) public onlyOwner {\r\n        marketingWallet = walletAddress;\r\n    }\r\n    \r\n    function setTaxFeePercent(uint256 taxFee) external onlyOwner() {\r\n        require(taxFee < 10, \"Tax fee cannot be more than 10%\");\r\n        _taxFee = taxFee;\r\n    }\r\n    \r\n    function setLiquidityFeePercent(uint256 liquidityFee) external onlyOwner() {\r\n        _liquidityFee = liquidityFee;\r\n    }\r\n   \r\n    function setMaxTxAmountToPercentageOfTotalSupply(uint256 percentage) external onlyOwner() {\r\n    require(percentage > 0 && percentage <= 100, \"Percentage must be between 1 and 100\");\r\n    uint256 tokenSupply = 69 * 10**12 * 10**18; \r\n    _maxTxAmount = (tokenSupply * percentage) / 100; // Set the maxTxAmount to the given percentage (1%) of the total supply\r\n    }\r\n    \r\n    function setSwapThresholdPercent(uint256 _swapThresholdPercent) external onlyOwner() { \r\n        require(_swapThresholdPercent > 0, \"Swap threshold percent must be greater than 0\");\r\n        swapThresholdPercent = _swapThresholdPercent;\r\n    }\r\n\r\n    \r\n    function claimTokens () public onlyOwner {\r\n        \r\n        payable(marketingWallet).transfer(address(this).balance);\r\n    }\r\n    \r\n    function claimOtherTokens(IERC20 tokenAddress, address walletaddress) external onlyOwner() {\r\n        require(address(tokenAddress) != address(this),\"can't withdraw InvasionMars token\");\r\n        tokenAddress.transfer(walletaddress, tokenAddress.balanceOf(address(this)));\r\n    }\r\n\r\n    \r\n    function clearStuckBalance (address payable walletaddress) external onlyOwner() {\r\n        walletaddress.transfer(address(this).balance);\r\n    }\r\n    \r\n    function addBotWallet(address botwallet) external onlyOwner() {\r\n        botWallets[botwallet] = true;\r\n    }\r\n    \r\n    function removeBotWallet(address botwallet) external onlyOwner() {\r\n        botWallets[botwallet] = false;\r\n    }\r\n    \r\n    function getBotWalletStatus(address botwallet) public view returns (bool) {\r\n        return botWallets[botwallet];\r\n    }\r\n    \r\n    function allowtrading()external onlyOwner() {\r\n        canTrade = true;\r\n    }\r\n\r\n    function setSwapAndLiquifyEnabled(bool _enabled) public onlyOwner {\r\n        swapAndLiquifyEnabled = _enabled;\r\n        emit SwapAndLiquifyEnabledUpdated(_enabled);\r\n    }\r\n    \r\n     \r\n    receive() external payable {}\r\n\r\n    function _reflectFee(uint256 rFee, uint256 tFee) private {\r\n        _rTotal = _rTotal.sub(rFee);\r\n        _tFeeTotal = _tFeeTotal.add(tFee);\r\n    }\r\n\r\n    function _getValues(uint256 tAmount) private view returns (uint256, uint256, uint256, uint256, uint256, uint256) {\r\n        (uint256 tTransferAmount, uint256 tFee, uint256 tLiquidity) = _getTValues(tAmount);\r\n        (uint256 rAmount, uint256 rTransferAmount, uint256 rFee) = _getRValues(tAmount, tFee, tLiquidity, _getRate());\r\n        return (rAmount, rTransferAmount, rFee, tTransferAmount, tFee, tLiquidity);\r\n    }\r\n\r\n    function _getTValues(uint256 tAmount) private view returns (uint256, uint256, uint256) {\r\n        uint256 tFee = calculateTaxFee(tAmount);\r\n        uint256 tLiquidity = calculateLiquidityFee(tAmount);\r\n        uint256 tTransferAmount = tAmount.sub(tFee).sub(tLiquidity);\r\n        return (tTransferAmount, tFee, tLiquidity);\r\n    }\r\n\r\n    function _getRValues(uint256 tAmount, uint256 tFee, uint256 tLiquidity, uint256 currentRate) private pure returns (uint256, uint256, uint256) {\r\n        uint256 rAmount = tAmount.mul(currentRate);\r\n        uint256 rFee = tFee.mul(currentRate);\r\n        uint256 rLiquidity = tLiquidity.mul(currentRate);\r\n        uint256 rTransferAmount = rAmount.sub(rFee).sub(rLiquidity);\r\n        return (rAmount, rTransferAmount, rFee);\r\n    }\r\n\r\n    function _getRate() private view returns(uint256) {\r\n        (uint256 rSupply, uint256 tSupply) = _getCurrentSupply();\r\n        return rSupply.div(tSupply);\r\n    }\r\n\r\n    function _getCurrentSupply() private view returns(uint256, uint256) {\r\n        uint256 rSupply = _rTotal;\r\n        uint256 tSupply = _tTotal;      \r\n        for (uint256 i = 0; i < _excluded.length; i++) {\r\n            if (_rOwned[_excluded[i]] > rSupply || _tOwned[_excluded[i]] > tSupply) return (_rTotal, _tTotal);\r\n            rSupply = rSupply.sub(_rOwned[_excluded[i]]);\r\n            tSupply = tSupply.sub(_tOwned[_excluded[i]]);\r\n        }\r\n        if (rSupply < _rTotal.div(_tTotal)) return (_rTotal, _tTotal);\r\n        return (rSupply, tSupply);\r\n    }\r\n    \r\n    function _takeLiquidity(uint256 tLiquidity) private {\r\n        uint256 currentRate =  _getRate();\r\n        uint256 rLiquidity = tLiquidity.mul(currentRate);\r\n        _rOwned[address(this)] = _rOwned[address(this)].add(rLiquidity);\r\n        if(_isExcluded[address(this)])\r\n            _tOwned[address(this)] = _tOwned[address(this)].add(tLiquidity);\r\n    }\r\n    \r\n    function calculateTaxFee(uint256 _amount) private view returns (uint256) {\r\n        return _amount.mul(_taxFee).div(\r\n            10**2\r\n        );\r\n    }\r\n\r\n    function calculateLiquidityFee(uint256 _amount) private view returns (uint256) {\r\n        return _amount.mul(_liquidityFee).div(\r\n            10**2\r\n        );\r\n    }\r\n    \r\n    function removeAllFee() private {\r\n        if(_taxFee == 0 && _liquidityFee == 0) return;\r\n        \r\n        _previousTaxFee = _taxFee;\r\n        _previousLiquidityFee = _liquidityFee;\r\n        \r\n        _taxFee = 0;\r\n        _liquidityFee = 0;\r\n    }\r\n    \r\n    function restoreAllFee() private {\r\n        _taxFee = _previousTaxFee;\r\n        _liquidityFee = _previousLiquidityFee;\r\n    }\r\n    \r\n    function isExcludedFromFee(address account) public view returns(bool) {\r\n        return _isExcludedFromFee[account];\r\n    }\r\n\r\n    function _approve(address owner, address spender, uint256 amount) private {\r\n        require(owner != address(0), \"ERC20: approve from the zero address\");\r\n        require(spender != address(0), \"ERC20: approve to the zero address\");\r\n\r\n        _allowances[owner][spender] = amount;\r\n        emit Approval(owner, spender, amount);\r\n    }\r\n\r\n    function _transfer(\r\n        address from,\r\n        address to,\r\n        uint256 amount\r\n    ) private {\r\n        require(from != address(0), \"ERC20: transfer from the zero address\");\r\n        require(to != address(0), \"ERC20: transfer to the zero address\");\r\n        require(amount > 0, \"Transfer amount must be greater than zero\");\r\n        if (from != owner() && to != owner())\r\n            require(amount <= _maxTxAmount, \"Transfer amount exceeds the maxTxAmount.\");\r\n\r\n        uint256 contractTokenBalance = balanceOf(address(this));\r\n        uint256 thresholdAmount = totalSupply().mul(swapThresholdPercent).div(100);\r\n\r\n        bool overMinTokenBalance = contractTokenBalance >= thresholdAmount;\r\n        if (\r\n            overMinTokenBalance &&\r\n            !inSwapAndLiquify &&\r\n            from != uniswapV2Pair &&\r\n            swapAndLiquifyEnabled\r\n        ) {\r\n            contractTokenBalance = thresholdAmount;\r\n\r\n            swapTokensForEth(contractTokenBalance);\r\n        }\r\n\r\n        bool takeFee = true;\r\n\r\n        if (_isExcludedFromFee[from] || _isExcludedFromFee[to]) {\r\n            takeFee = false;\r\n        }\r\n\r\n        _tokenTransfer(from, to, amount, takeFee);\r\n    }\r\n\r\n    function swapAndLiquify(uint256 contractTokenBalance) private lockTheSwap {\r\n        uint256 halfForIM69 = contractTokenBalance.div(2);\r\n        uint256 otherHalf = contractTokenBalance.sub(halfForIM69);\r\n\r\n        uint256 initialBalance = address(this).balance;\r\n\r\n        swapTokensForEth(halfForIM69);\r\n\r\n        uint256 newBalance = address(this).balance.sub(initialBalance);\r\n        uint256 marketingshare = newBalance.mul(marketingFeePercent).div(100);\r\n        payable(marketingWallet).transfer(marketingshare);\r\n        newBalance -= marketingshare;\r\n        addLiquidity(halfForIM69, newBalance.div(2));\r\n\r\n        emit SwapAndLiquify(halfForIM69, newBalance, otherHalf);\r\n    }\r\n\r\n    function swapTokensForEth(uint256 tokenAmount) private {\r\n        address[] memory path = new address[](2);\r\n        path[0] = address(this);\r\n        path[1] = uniswapV2Router.WETH();\r\n\r\n        _approve(address(this), address(uniswapV2Router), tokenAmount);\r\n\r\n        uniswapV2Router.swapExactTokensForETHSupportingFeeOnTransferTokens(\r\n            tokenAmount,\r\n            0,\r\n            path,\r\n            address(this),\r\n            block.timestamp\r\n        );\r\n    }\r\n\r\n    function addLiquidity(uint256 tokenAmount, uint256 ethAmount) private {\r\n        _approve(address(this), address(uniswapV2Router), tokenAmount);\r\n\r\n        uniswapV2Router.addLiquidityETH{value: ethAmount}(\r\n            address(this),\r\n            tokenAmount,\r\n            0,\r\n            0,\r\n            owner(),\r\n            block.timestamp\r\n        );\r\n    }\r\n\r\n    function _tokenTransfer(address sender, address recipient, uint256 amount,bool takeFee) private {\r\n        if(!canTrade){\r\n            require(sender == owner()); \r\n        }\r\n        \r\n        if(botWallets[sender] || botWallets[recipient]){\r\n            require(botscantrade, \"bots arent allowed to trade\");\r\n        }\r\n        \r\n        if(!takeFee)\r\n            removeAllFee();\r\n        \r\n        if (_isExcluded[sender] && !_isExcluded[recipient]) {\r\n        _transferFromExcluded(sender, recipient, amount);\r\n    } else if (!_isExcluded[sender] && _isExcluded[recipient]) {\r\n        _transferToExcluded(sender, recipient, amount);\r\n    } else if (_isExcluded[sender] && _isExcluded[recipient]) {\r\n        _transferBothExcluded(sender, recipient, amount);\r\n    } else {\r\n        _transferStandard(sender, recipient, amount);\r\n    }\r\n        \r\n        if(!takeFee)\r\n            restoreAllFee();\r\n    }\r\n\r\n    function _transferStandard(address sender, address recipient, uint256 tAmount) private {\r\n        (uint256 rAmount, uint256 rTransferAmount, uint256 rFee, uint256 tTransferAmount, uint256 tFee, uint256 tLiquidity) = _getValues(tAmount);\r\n        _rOwned[sender] = _rOwned[sender].sub(rAmount);\r\n        _rOwned[recipient] = _rOwned[recipient].add(rTransferAmount);\r\n        _takeLiquidity(tLiquidity);\r\n        _reflectFee(rFee, tFee);\r\n        emit Transfer(sender, recipient, tTransferAmount);\r\n    }\r\n\r\n    function _transferToExcluded(address sender, address recipient, uint256 tAmount) private {\r\n        (uint256 rAmount, uint256 rTransferAmount, uint256 rFee, uint256 tTransferAmount, uint256 tFee, uint256 tLiquidity) = _getValues(tAmount);\r\n        _rOwned[sender] = _rOwned[sender].sub(rAmount);\r\n        _tOwned[recipient] = _tOwned[recipient].add(tTransferAmount);\r\n        _rOwned[recipient] = _rOwned[recipient].add(rTransferAmount);           \r\n        _takeLiquidity(tLiquidity);\r\n        _reflectFee(rFee, tFee);\r\n        emit Transfer(sender, recipient, tTransferAmount);\r\n    }\r\n\r\n    function _transferFromExcluded(address sender, address recipient, uint256 tAmount) private {\r\n        (uint256 rAmount, uint256 rTransferAmount, uint256 rFee, uint256 tTransferAmount, uint256 tFee, uint256 tLiquidity) = _getValues(tAmount);\r\n        _tOwned[sender] = _tOwned[sender].sub(tAmount);\r\n        _rOwned[sender] = _rOwned[sender].sub(rAmount);\r\n        _rOwned[recipient] = _rOwned[recipient].add(rTransferAmount);   \r\n        _takeLiquidity(tLiquidity);\r\n        _reflectFee(rFee, tFee);\r\n        emit Transfer(sender, recipient, tTransferAmount);\r\n    }\r\n\r\n}",
  "sourcePath": "C:\\Users\\justi\\Desktop\\IM69LAUNCH\\contracts\\InvasionMars.sol",
  "compiler": {
    "name": "solc",
    "version": "0.8.17+commit.8df45f5f.Emscripten.clang"
  },
  "schemaVersion": "3.4.14",
  "updatedAt": "2023-05-25T12:59:04.665Z",
  "devdoc": {
    "kind": "dev",
    "methods": {
      "allowance(address,address)": {
        "details": "Returns the remaining number of tokens that `spender` will be allowed to spend on behalf of `owner` through {transferFrom}. This is zero by default. This value changes when {approve} or {transferFrom} are called."
      },
      "approve(address,uint256)": {
        "details": "Sets `amount` as the allowance of `spender` over the caller's tokens. Returns a boolean value indicating whether the operation succeeded. IMPORTANT: Beware that changing an allowance with this method brings the risk that someone may use both the old and the new allowance by unfortunate transaction ordering. One possible solution to mitigate this race condition is to first reduce the spender's allowance to 0 and set the desired value afterwards: https://github.com/ethereum/EIPs/issues/20#issuecomment-263524729 Emits an {Approval} event."
      },
      "balanceOf(address)": {
        "details": "Returns the amount of tokens owned by `account`."
      },
      "owner()": {
        "details": "Returns the address of the current owner."
      },
      "renounceOwnership()": {
        "details": "Leaves the contract without owner. It will not be possible to call `onlyOwner` functions anymore. Can only be called by the current owner. NOTE: Renouncing ownership will leave the contract without an owner, thereby removing any functionality that is only available to the owner."
      },
      "totalSupply()": {
        "details": "Returns the amount of tokens in existence."
      },
      "transferOwnership(address)": {
        "details": "Transfers ownership of the contract to a new account (`newOwner`). Can only be called by the current owner."
      }
    },
    "version": 1
  },
  "userdoc": {
    "kind": "user",
    "methods": {},
    "version": 1
  }
}